{
  "_format": "hh-sol-artifact-1",
  "contractName": "BlockEstate",
  "sourceName": "contracts/BlockEstate.sol",
  "abi": [
    {
      "inputs": [],
      "stateMutability": "nonpayable",
      "type": "constructor"
    },
    {
      "anonymous": false,
      "inputs": [
        {
          "indexed": true,
          "internalType": "address",
          "name": "owner",
          "type": "address"
        },
        {
          "indexed": true,
          "internalType": "address",
          "name": "approved",
          "type": "address"
        },
        {
          "indexed": true,
          "internalType": "uint256",
          "name": "tokenId",
          "type": "uint256"
        }
      ],
      "name": "Approval",
      "type": "event"
    },
    {
      "anonymous": false,
      "inputs": [
        {
          "indexed": true,
          "internalType": "address",
          "name": "owner",
          "type": "address"
        },
        {
          "indexed": true,
          "internalType": "address",
          "name": "operator",
          "type": "address"
        },
        {
          "indexed": false,
          "internalType": "bool",
          "name": "approved",
          "type": "bool"
        }
      ],
      "name": "ApprovalForAll",
      "type": "event"
    },
    {
      "anonymous": false,
      "inputs": [
        {
          "indexed": true,
          "internalType": "uint256",
          "name": "tokenId",
          "type": "uint256"
        },
        {
          "indexed": false,
          "internalType": "address",
          "name": "owner",
          "type": "address"
        },
        {
          "indexed": false,
          "internalType": "address",
          "name": "seller",
          "type": "address"
        },
        {
          "indexed": false,
          "internalType": "uint256",
          "name": "price",
          "type": "uint256"
        },
        {
          "indexed": false,
          "internalType": "bool",
          "name": "currentlyListed",
          "type": "bool"
        }
      ],
      "name": "TokenListedSuccess",
      "type": "event"
    },
    {
      "anonymous": false,
      "inputs": [
        {
          "indexed": true,
          "internalType": "address",
          "name": "from",
          "type": "address"
        },
        {
          "indexed": true,
          "internalType": "address",
          "name": "to",
          "type": "address"
        },
        {
          "indexed": true,
          "internalType": "uint256",
          "name": "tokenId",
          "type": "uint256"
        }
      ],
      "name": "Transfer",
      "type": "event"
    },
    {
      "inputs": [
        {
          "internalType": "address",
          "name": "to",
          "type": "address"
        },
        {
          "internalType": "uint256",
          "name": "tokenId",
          "type": "uint256"
        }
      ],
      "name": "approve",
      "outputs": [],
      "stateMutability": "nonpayable",
      "type": "function"
    },
    {
      "inputs": [
        {
          "internalType": "address",
          "name": "owner",
          "type": "address"
        }
      ],
      "name": "balanceOf",
      "outputs": [
        {
          "internalType": "uint256",
          "name": "",
          "type": "uint256"
        }
      ],
      "stateMutability": "view",
      "type": "function"
    },
    {
      "inputs": [
        {
          "internalType": "string",
          "name": "tokenURI",
          "type": "string"
        },
        {
          "internalType": "uint256",
          "name": "price",
          "type": "uint256"
        }
      ],
      "name": "createToken",
      "outputs": [
        {
          "internalType": "uint256",
          "name": "",
          "type": "uint256"
        }
      ],
      "stateMutability": "payable",
      "type": "function"
    },
    {
      "inputs": [
        {
          "internalType": "uint256",
          "name": "tokenId",
          "type": "uint256"
        }
      ],
      "name": "executeSale",
      "outputs": [],
      "stateMutability": "payable",
      "type": "function"
    },
    {
      "inputs": [],
      "name": "getAllNFTs",
      "outputs": [
        {
          "components": [
            {
              "internalType": "uint256",
              "name": "tokenId",
              "type": "uint256"
            },
            {
              "internalType": "address payable",
              "name": "owner",
              "type": "address"
            },
            {
              "internalType": "address payable",
              "name": "seller",
              "type": "address"
            },
            {
              "internalType": "uint256",
              "name": "price",
              "type": "uint256"
            },
            {
              "internalType": "bool",
              "name": "currentlyListed",
              "type": "bool"
            }
          ],
          "internalType": "struct BlockEstate.ListedToken[]",
          "name": "",
          "type": "tuple[]"
        }
      ],
      "stateMutability": "view",
      "type": "function"
    },
    {
      "inputs": [
        {
          "internalType": "uint256",
          "name": "tokenId",
          "type": "uint256"
        }
      ],
      "name": "getApproved",
      "outputs": [
        {
          "internalType": "address",
          "name": "",
          "type": "address"
        }
      ],
      "stateMutability": "view",
      "type": "function"
    },
    {
      "inputs": [],
      "name": "getCurrentToken",
      "outputs": [
        {
          "internalType": "uint256",
          "name": "",
          "type": "uint256"
        }
      ],
      "stateMutability": "view",
      "type": "function"
    },
    {
      "inputs": [],
      "name": "getLatestIdToListedToken",
      "outputs": [
        {
          "components": [
            {
              "internalType": "uint256",
              "name": "tokenId",
              "type": "uint256"
            },
            {
              "internalType": "address payable",
              "name": "owner",
              "type": "address"
            },
            {
              "internalType": "address payable",
              "name": "seller",
              "type": "address"
            },
            {
              "internalType": "uint256",
              "name": "price",
              "type": "uint256"
            },
            {
              "internalType": "bool",
              "name": "currentlyListed",
              "type": "bool"
            }
          ],
          "internalType": "struct BlockEstate.ListedToken",
          "name": "",
          "type": "tuple"
        }
      ],
      "stateMutability": "view",
      "type": "function"
    },
    {
      "inputs": [],
      "name": "getListPrice",
      "outputs": [
        {
          "internalType": "uint256",
          "name": "",
          "type": "uint256"
        }
      ],
      "stateMutability": "view",
      "type": "function"
    },
    {
      "inputs": [
        {
          "internalType": "uint256",
          "name": "tokenId",
          "type": "uint256"
        }
      ],
      "name": "getListedTokenForId",
      "outputs": [
        {
          "components": [
            {
              "internalType": "uint256",
              "name": "tokenId",
              "type": "uint256"
            },
            {
              "internalType": "address payable",
              "name": "owner",
              "type": "address"
            },
            {
              "internalType": "address payable",
              "name": "seller",
              "type": "address"
            },
            {
              "internalType": "uint256",
              "name": "price",
              "type": "uint256"
            },
            {
              "internalType": "bool",
              "name": "currentlyListed",
              "type": "bool"
            }
          ],
          "internalType": "struct BlockEstate.ListedToken",
          "name": "",
          "type": "tuple"
        }
      ],
      "stateMutability": "view",
      "type": "function"
    },
    {
      "inputs": [],
      "name": "getMyNFTs",
      "outputs": [
        {
          "components": [
            {
              "internalType": "uint256",
              "name": "tokenId",
              "type": "uint256"
            },
            {
              "internalType": "address payable",
              "name": "owner",
              "type": "address"
            },
            {
              "internalType": "address payable",
              "name": "seller",
              "type": "address"
            },
            {
              "internalType": "uint256",
              "name": "price",
              "type": "uint256"
            },
            {
              "internalType": "bool",
              "name": "currentlyListed",
              "type": "bool"
            }
          ],
          "internalType": "struct BlockEstate.ListedToken[]",
          "name": "",
          "type": "tuple[]"
        }
      ],
      "stateMutability": "view",
      "type": "function"
    },
    {
      "inputs": [
        {
          "internalType": "address",
          "name": "owner",
          "type": "address"
        },
        {
          "internalType": "address",
          "name": "operator",
          "type": "address"
        }
      ],
      "name": "isApprovedForAll",
      "outputs": [
        {
          "internalType": "bool",
          "name": "",
          "type": "bool"
        }
      ],
      "stateMutability": "view",
      "type": "function"
    },
    {
      "inputs": [
        {
          "internalType": "uint256",
          "name": "",
          "type": "uint256"
        }
      ],
      "name": "myURI",
      "outputs": [
        {
          "internalType": "string",
          "name": "",
          "type": "string"
        }
      ],
      "stateMutability": "view",
      "type": "function"
    },
    {
      "inputs": [],
      "name": "name",
      "outputs": [
        {
          "internalType": "string",
          "name": "",
          "type": "string"
        }
      ],
      "stateMutability": "view",
      "type": "function"
    },
    {
      "inputs": [
        {
          "internalType": "uint256",
          "name": "tokenId",
          "type": "uint256"
        }
      ],
      "name": "ownerOf",
      "outputs": [
        {
          "internalType": "address",
          "name": "",
          "type": "address"
        }
      ],
      "stateMutability": "view",
      "type": "function"
    },
    {
      "inputs": [
        {
          "internalType": "address",
          "name": "from",
          "type": "address"
        },
        {
          "internalType": "address",
          "name": "to",
          "type": "address"
        },
        {
          "internalType": "uint256",
          "name": "tokenId",
          "type": "uint256"
        }
      ],
      "name": "safeTransferFrom",
      "outputs": [],
      "stateMutability": "nonpayable",
      "type": "function"
    },
    {
      "inputs": [
        {
          "internalType": "address",
          "name": "from",
          "type": "address"
        },
        {
          "internalType": "address",
          "name": "to",
          "type": "address"
        },
        {
          "internalType": "uint256",
          "name": "tokenId",
          "type": "uint256"
        },
        {
          "internalType": "bytes",
          "name": "data",
          "type": "bytes"
        }
      ],
      "name": "safeTransferFrom",
      "outputs": [],
      "stateMutability": "nonpayable",
      "type": "function"
    },
    {
      "inputs": [
        {
          "internalType": "address",
          "name": "operator",
          "type": "address"
        },
        {
          "internalType": "bool",
          "name": "approved",
          "type": "bool"
        }
      ],
      "name": "setApprovalForAll",
      "outputs": [],
      "stateMutability": "nonpayable",
      "type": "function"
    },
    {
      "inputs": [
        {
          "internalType": "bytes4",
          "name": "interfaceId",
          "type": "bytes4"
        }
      ],
      "name": "supportsInterface",
      "outputs": [
        {
          "internalType": "bool",
          "name": "",
          "type": "bool"
        }
      ],
      "stateMutability": "view",
      "type": "function"
    },
    {
      "inputs": [],
      "name": "symbol",
      "outputs": [
        {
          "internalType": "string",
          "name": "",
          "type": "string"
        }
      ],
      "stateMutability": "view",
      "type": "function"
    },
    {
      "inputs": [
        {
          "internalType": "uint256",
          "name": "tokenId",
          "type": "uint256"
        }
      ],
      "name": "tokenURI",
      "outputs": [
        {
          "internalType": "string",
          "name": "",
          "type": "string"
        }
      ],
      "stateMutability": "view",
      "type": "function"
    },
    {
      "inputs": [
        {
          "internalType": "address",
          "name": "from",
          "type": "address"
        },
        {
          "internalType": "address",
          "name": "to",
          "type": "address"
        },
        {
          "internalType": "uint256",
          "name": "tokenId",
          "type": "uint256"
        }
      ],
      "name": "transferFrom",
      "outputs": [],
      "stateMutability": "nonpayable",
      "type": "function"
    },
    {
      "inputs": [
        {
          "internalType": "uint256",
          "name": "_listPrice",
          "type": "uint256"
        }
      ],
      "name": "updateListPrice",
      "outputs": [],
      "stateMutability": "payable",
      "type": "function"
    }
  ],
  "bytecode": "0x6080604052662386f26fc10000600a553480156200001c57600080fd5b506040518060400160405280600b81526020017f426c6f636b4573746174650000000000000000000000000000000000000000008152506040518060400160405280600281526020017f424c00000000000000000000000000000000000000000000000000000000000081525081600090816200009a919062000370565b508060019081620000ac919062000370565b50505033600960006101000a81548173ffffffffffffffffffffffffffffffffffffffff021916908373ffffffffffffffffffffffffffffffffffffffff16021790555062000457565b600081519050919050565b7f4e487b7100000000000000000000000000000000000000000000000000000000600052604160045260246000fd5b7f4e487b7100000000000000000000000000000000000000000000000000000000600052602260045260246000fd5b600060028204905060018216806200017857607f821691505b6020821081036200018e576200018d62000130565b5b50919050565b60008190508160005260206000209050919050565b60006020601f8301049050919050565b600082821b905092915050565b600060088302620001f87fffffffffffffffffffffffffffffffffffffffffffffffffffffffffffffffff82620001b9565b620002048683620001b9565b95508019841693508086168417925050509392505050565b6000819050919050565b6000819050919050565b6000620002516200024b62000245846200021c565b62000226565b6200021c565b9050919050565b6000819050919050565b6200026d8362000230565b620002856200027c8262000258565b848454620001c6565b825550505050565b600090565b6200029c6200028d565b620002a981848462000262565b505050565b5b81811015620002d157620002c560008262000292565b600181019050620002af565b5050565b601f8211156200032057620002ea8162000194565b620002f584620001a9565b8101602085101562000305578190505b6200031d6200031485620001a9565b830182620002ae565b50505b505050565b600082821c905092915050565b6000620003456000198460080262000325565b1980831691505092915050565b600062000360838362000332565b9150826002028217905092915050565b6200037b82620000f6565b67ffffffffffffffff81111562000397576200039662000101565b5b620003a382546200015f565b620003b0828285620002d5565b600060209050601f831160018114620003e85760008415620003d3578287015190505b620003df858262000352565b8655506200044f565b601f198416620003f88662000194565b60005b828110156200042257848901518255600182019150602085019450602081019050620003fb565b868310156200044257848901516200043e601f89168262000332565b8355505b6001600288020188555050505b505050505050565b61406d80620004676000396000f3fe6080604052600436106101405760003560e01c80638e264590116100b6578063c87b56dd1161006f578063c87b56dd14610457578063d1a88ae514610494578063e0391b09146104bf578063e985e9c5146104ea578063ef2d174614610527578063fcc956541461055257610140565b80638e2645901461036557806395d89b41146103a25780639b1225c4146103cd578063a22cb465146103e9578063b88d4fde14610412578063c322579c1461043b57610140565b806342842e0e1161010857806342842e0e1461023c578063629cb2e4146102655780636352211e1461029057806368f1945f146102cd57806370a08231146102f857806372b3b6201461033557610140565b806301ffc9a71461014557806306fdde0314610182578063081812fc146101ad578063095ea7b3146101ea57806323b872dd14610213575b600080fd5b34801561015157600080fd5b5061016c600480360381019061016791906129fa565b61058f565b6040516101799190612a42565b60405180910390f35b34801561018e57600080fd5b50610197610671565b6040516101a49190612aed565b60405180910390f35b3480156101b957600080fd5b506101d460048036038101906101cf9190612b45565b610703565b6040516101e19190612bb3565b60405180910390f35b3480156101f657600080fd5b50610211600480360381019061020c9190612bfa565b610749565b005b34801561021f57600080fd5b5061023a60048036038101906102359190612c3a565b610860565b005b34801561024857600080fd5b50610263600480360381019061025e9190612c3a565b6108c0565b005b34801561027157600080fd5b5061027a6108e0565b6040516102879190612de3565b60405180910390f35b34801561029c57600080fd5b506102b760048036038101906102b29190612b45565b610cc1565b6040516102c49190612bb3565b60405180910390f35b3480156102d957600080fd5b506102e2610d47565b6040516102ef9190612e14565b60405180910390f35b34801561030457600080fd5b5061031f600480360381019061031a9190612e2f565b610d51565b60405161032c9190612e14565b60405180910390f35b61034f600480360381019061034a9190612f91565b610e08565b60405161035c9190612e14565b60405180910390f35b34801561037157600080fd5b5061038c60048036038101906103879190612b45565b610e7f565b6040516103999190613055565b60405180910390f35b3480156103ae57600080fd5b506103b7610f87565b6040516103c49190612aed565b60405180910390f35b6103e760048036038101906103e29190612b45565b611019565b005b3480156103f557600080fd5b50610410600480360381019061040b919061309c565b61120b565b005b34801561041e57600080fd5b506104396004803603810190610434919061317d565b611221565b005b61045560048036038101906104509190612b45565b611283565b005b34801561046357600080fd5b5061047e60048036038101906104799190612b45565b61131d565b60405161048b9190612aed565b60405180910390f35b3480156104a057600080fd5b506104a961142f565b6040516104b69190613055565b60405180910390f35b3480156104cb57600080fd5b506104d4611544565b6040516104e19190612de3565b60405180910390f35b3480156104f657600080fd5b50610511600480360381019061050c9190613200565b611716565b60405161051e9190612a42565b60405180910390f35b34801561053357600080fd5b5061053c6117aa565b6040516105499190612e14565b60405180910390f35b34801561055e57600080fd5b5061057960048036038101906105749190612b45565b6117bb565b6040516105869190612aed565b60405180910390f35b60007f80ac58cd000000000000000000000000000000000000000000000000000000007bffffffffffffffffffffffffffffffffffffffffffffffffffffffff1916827bffffffffffffffffffffffffffffffffffffffffffffffffffffffff1916148061065a57507f5b5e139f000000000000000000000000000000000000000000000000000000007bffffffffffffffffffffffffffffffffffffffffffffffffffffffff1916827bffffffffffffffffffffffffffffffffffffffffffffffffffffffff1916145b8061066a575061066982611867565b5b9050919050565b6060600080546106809061326f565b80601f01602080910402602001604051908101604052809291908181526020018280546106ac9061326f565b80156106f95780601f106106ce576101008083540402835291602001916106f9565b820191906000526020600020905b8154815290600101906020018083116106dc57829003601f168201915b5050505050905090565b600061070e826118d1565b6004600083815260200190815260200160002060009054906101000a900473ffffffffffffffffffffffffffffffffffffffff169050919050565b600061075482610cc1565b90508073ffffffffffffffffffffffffffffffffffffffff168373ffffffffffffffffffffffffffffffffffffffff16036107c4576040517f08c379a00000000000000000000000000000000000000000000000000000000081526004016107bb90613312565b60405180910390fd5b8073ffffffffffffffffffffffffffffffffffffffff166107e361191c565b73ffffffffffffffffffffffffffffffffffffffff16148061081257506108118161080c61191c565b611716565b5b610851576040517f08c379a0000000000000000000000000000000000000000000000000000000008152600401610848906133a4565b60405180910390fd5b61085b8383611924565b505050565b61087161086b61191c565b826119dd565b6108b0576040517f08c379a00000000000000000000000000000000000000000000000000000000081526004016108a790613436565b60405180910390fd5b6108bb838383611a72565b505050565b6108db83838360405180602001604052806000815250611221565b505050565b606060006108ee6007611d6b565b9050600080600080600090505b84811015610a14573373ffffffffffffffffffffffffffffffffffffffff16600c600060018461092b9190613485565b815260200190815260200160002060010160009054906101000a900473ffffffffffffffffffffffffffffffffffffffff1673ffffffffffffffffffffffffffffffffffffffff1614806109ec57503373ffffffffffffffffffffffffffffffffffffffff16600c60006001846109a29190613485565b815260200190815260200160002060020160009054906101000a900473ffffffffffffffffffffffffffffffffffffffff1673ffffffffffffffffffffffffffffffffffffffff16145b15610a01576001846109fe9190613485565b93505b8080610a0c906134b9565b9150506108fb565b5060008367ffffffffffffffff811115610a3157610a30612e66565b5b604051908082528060200260200182016040528015610a6a57816020015b610a57612931565b815260200190600190039081610a4f5790505b50905060005b85811015610cb5573373ffffffffffffffffffffffffffffffffffffffff16600c6000600184610aa09190613485565b815260200190815260200160002060010160009054906101000a900473ffffffffffffffffffffffffffffffffffffffff1673ffffffffffffffffffffffffffffffffffffffff161480610b6157503373ffffffffffffffffffffffffffffffffffffffff16600c6000600184610b179190613485565b815260200190815260200160002060020160009054906101000a900473ffffffffffffffffffffffffffffffffffffffff1673ffffffffffffffffffffffffffffffffffffffff16145b15610ca257600181610b739190613485565b92506000600c60008581526020019081526020016000209050806040518060a0016040529081600082015481526020016001820160009054906101000a900473ffffffffffffffffffffffffffffffffffffffff1673ffffffffffffffffffffffffffffffffffffffff1673ffffffffffffffffffffffffffffffffffffffff1681526020016002820160009054906101000a900473ffffffffffffffffffffffffffffffffffffffff1673ffffffffffffffffffffffffffffffffffffffff1673ffffffffffffffffffffffffffffffffffffffff168152602001600382015481526020016004820160009054906101000a900460ff161515151581525050838681518110610c8657610c85613501565b5b6020026020010181905250600185610c9e9190613485565b9450505b8080610cad906134b9565b915050610a70565b50809550505050505090565b600080610ccd83611d79565b9050600073ffffffffffffffffffffffffffffffffffffffff168173ffffffffffffffffffffffffffffffffffffffff1603610d3e576040517f08c379a0000000000000000000000000000000000000000000000000000000008152600401610d359061357c565b60405180910390fd5b80915050919050565b6000600a54905090565b60008073ffffffffffffffffffffffffffffffffffffffff168273ffffffffffffffffffffffffffffffffffffffff1603610dc1576040517f08c379a0000000000000000000000000000000000000000000000000000000008152600401610db89061360e565b60405180910390fd5b600360008373ffffffffffffffffffffffffffffffffffffffff1673ffffffffffffffffffffffffffffffffffffffff168152602001908152602001600020549050919050565b6000600b83908060018154018082558091505060019003906000526020600020016000909190919091509081610e3e91906137da565b50610e496007611db6565b6000610e556007611d6b565b9050610e613382611dcc565b610e6b8185611dea565b610e758184611e57565b8091505092915050565b610e87612931565b600c60008381526020019081526020016000206040518060a0016040529081600082015481526020016001820160009054906101000a900473ffffffffffffffffffffffffffffffffffffffff1673ffffffffffffffffffffffffffffffffffffffff1673ffffffffffffffffffffffffffffffffffffffff1681526020016002820160009054906101000a900473ffffffffffffffffffffffffffffffffffffffff1673ffffffffffffffffffffffffffffffffffffffff1673ffffffffffffffffffffffffffffffffffffffff168152602001600382015481526020016004820160009054906101000a900460ff1615151515815250509050919050565b606060018054610f969061326f565b80601f0160208091040260200160405190810160405280929190818152602001828054610fc29061326f565b801561100f5780601f10610fe45761010080835404028352916020019161100f565b820191906000526020600020905b815481529060010190602001808311610ff257829003601f168201915b5050505050905090565b6000600c60008381526020019081526020016000206003015490506000600c600084815260200190815260200160002060020160009054906101000a900473ffffffffffffffffffffffffffffffffffffffff1690508134146110b1576040517f08c379a00000000000000000000000000000000000000000000000000000000081526004016110a89061391e565b60405180910390fd5b6001600c600085815260200190815260200160002060040160006101000a81548160ff02191690831515021790555033600c600085815260200190815260200160002060020160006101000a81548173ffffffffffffffffffffffffffffffffffffffff021916908373ffffffffffffffffffffffffffffffffffffffff16021790555061113f6008611db6565b61114a303385611a72565b6111543084610749565b600960009054906101000a900473ffffffffffffffffffffffffffffffffffffffff1673ffffffffffffffffffffffffffffffffffffffff166108fc600a549081150290604051600060405180830381858888f193505050501580156111be573d6000803e3d6000fd5b508073ffffffffffffffffffffffffffffffffffffffff166108fc349081150290604051600060405180830381858888f19350505050158015611205573d6000803e3d6000fd5b50505050565b61121d61121661191c565b838361205a565b5050565b61123261122c61191c565b836119dd565b611271576040517f08c379a000000000000000000000000000000000000000000000000000000000815260040161126890613436565b60405180910390fd5b61127d848484846121c6565b50505050565b3373ffffffffffffffffffffffffffffffffffffffff16600960009054906101000a900473ffffffffffffffffffffffffffffffffffffffff1673ffffffffffffffffffffffffffffffffffffffff1614611313576040517f08c379a000000000000000000000000000000000000000000000000000000000815260040161130a906139b0565b60405180910390fd5b80600a8190555050565b6060611328826118d1565b60006006600084815260200190815260200160002080546113489061326f565b80601f01602080910402602001604051908101604052809291908181526020018280546113749061326f565b80156113c15780601f10611396576101008083540402835291602001916113c1565b820191906000526020600020905b8154815290600101906020018083116113a457829003601f168201915b5050505050905060006113d2612222565b905060008151036113e757819250505061142a565b60008251111561141c578082604051602001611404929190613a0c565b6040516020818303038152906040529250505061142a565b61142584612239565b925050505b919050565b611437612931565b60006114436007611d6b565b9050600c60008281526020019081526020016000206040518060a0016040529081600082015481526020016001820160009054906101000a900473ffffffffffffffffffffffffffffffffffffffff1673ffffffffffffffffffffffffffffffffffffffff1673ffffffffffffffffffffffffffffffffffffffff1681526020016002820160009054906101000a900473ffffffffffffffffffffffffffffffffffffffff1673ffffffffffffffffffffffffffffffffffffffff1673ffffffffffffffffffffffffffffffffffffffff168152602001600382015481526020016004820160009054906101000a900460ff16151515158152505091505090565b606060006115526007611d6b565b905060008167ffffffffffffffff8111156115705761156f612e66565b5b6040519080825280602002602001820160405280156115a957816020015b611596612931565b81526020019060019003908161158e5790505b50905060008080600090505b8481101561170b576001816115ca9190613485565b91506000600c60008481526020019081526020016000209050806040518060a0016040529081600082015481526020016001820160009054906101000a900473ffffffffffffffffffffffffffffffffffffffff1673ffffffffffffffffffffffffffffffffffffffff1673ffffffffffffffffffffffffffffffffffffffff1681526020016002820160009054906101000a900473ffffffffffffffffffffffffffffffffffffffff1673ffffffffffffffffffffffffffffffffffffffff1673ffffffffffffffffffffffffffffffffffffffff168152602001600382015481526020016004820160009054906101000a900460ff1615151515815250508585815181106116dd576116dc613501565b5b60200260200101819052506001846116f59190613485565b9350508080611703906134b9565b9150506115b5565b508294505050505090565b6000600560008473ffffffffffffffffffffffffffffffffffffffff1673ffffffffffffffffffffffffffffffffffffffff16815260200190815260200160002060008373ffffffffffffffffffffffffffffffffffffffff1673ffffffffffffffffffffffffffffffffffffffff16815260200190815260200160002060009054906101000a900460ff16905092915050565b60006117b66007611d6b565b905090565b600b81815481106117cb57600080fd5b9060005260206000200160009150905080546117e69061326f565b80601f01602080910402602001604051908101604052809291908181526020018280546118129061326f565b801561185f5780601f106118345761010080835404028352916020019161185f565b820191906000526020600020905b81548152906001019060200180831161184257829003601f168201915b505050505081565b60007f01ffc9a7000000000000000000000000000000000000000000000000000000007bffffffffffffffffffffffffffffffffffffffffffffffffffffffff1916827bffffffffffffffffffffffffffffffffffffffffffffffffffffffff1916149050919050565b6118da816122a1565b611919576040517f08c379a00000000000000000000000000000000000000000000000000000000081526004016119109061357c565b60405180910390fd5b50565b600033905090565b816004600083815260200190815260200160002060006101000a81548173ffffffffffffffffffffffffffffffffffffffff021916908373ffffffffffffffffffffffffffffffffffffffff160217905550808273ffffffffffffffffffffffffffffffffffffffff1661199783610cc1565b73ffffffffffffffffffffffffffffffffffffffff167f8c5be1e5ebec7d5bd14f71427d1e84f3dd0314c0f7b2291e5b200ac8c7c3b92560405160405180910390a45050565b6000806119e983610cc1565b90508073ffffffffffffffffffffffffffffffffffffffff168473ffffffffffffffffffffffffffffffffffffffff161480611a2b5750611a2a8185611716565b5b80611a6957508373ffffffffffffffffffffffffffffffffffffffff16611a5184610703565b73ffffffffffffffffffffffffffffffffffffffff16145b91505092915050565b8273ffffffffffffffffffffffffffffffffffffffff16611a9282610cc1565b73ffffffffffffffffffffffffffffffffffffffff1614611ae8576040517f08c379a0000000000000000000000000000000000000000000000000000000008152600401611adf90613aa2565b60405180910390fd5b600073ffffffffffffffffffffffffffffffffffffffff168273ffffffffffffffffffffffffffffffffffffffff1603611b57576040517f08c379a0000000000000000000000000000000000000000000000000000000008152600401611b4e90613b34565b60405180910390fd5b611b6483838360016122e2565b8273ffffffffffffffffffffffffffffffffffffffff16611b8482610cc1565b73ffffffffffffffffffffffffffffffffffffffff1614611bda576040517f08c379a0000000000000000000000000000000000000000000000000000000008152600401611bd190613aa2565b60405180910390fd5b6004600082815260200190815260200160002060006101000a81549073ffffffffffffffffffffffffffffffffffffffff02191690556001600360008573ffffffffffffffffffffffffffffffffffffffff1673ffffffffffffffffffffffffffffffffffffffff168152602001908152602001600020600082825403925050819055506001600360008473ffffffffffffffffffffffffffffffffffffffff1673ffffffffffffffffffffffffffffffffffffffff16815260200190815260200160002060008282540192505081905550816002600083815260200190815260200160002060006101000a81548173ffffffffffffffffffffffffffffffffffffffff021916908373ffffffffffffffffffffffffffffffffffffffff160217905550808273ffffffffffffffffffffffffffffffffffffffff168473ffffffffffffffffffffffffffffffffffffffff167fddf252ad1be2c89b69c2b068fc378daa952ba7f163c4a11628f55a4df523b3ef60405160405180910390a4611d6683838360016122e8565b505050565b600081600001549050919050565b60006002600083815260200190815260200160002060009054906101000a900473ffffffffffffffffffffffffffffffffffffffff169050919050565b6001816000016000828254019250508190555050565b611de68282604051806020016040528060008152506122ee565b5050565b611df3826122a1565b611e32576040517f08c379a0000000000000000000000000000000000000000000000000000000008152600401611e2990613bc6565b60405180910390fd5b80600660008481526020019081526020016000209081611e5291906137da565b505050565b600a543414611e9b576040517f08c379a0000000000000000000000000000000000000000000000000000000008152600401611e9290613c58565b60405180910390fd5b60008111611ede576040517f08c379a0000000000000000000000000000000000000000000000000000000008152600401611ed590613cea565b60405180910390fd5b6040518060a001604052808381526020013073ffffffffffffffffffffffffffffffffffffffff1681526020013373ffffffffffffffffffffffffffffffffffffffff16815260200182815260200160011515815250600c60008481526020019081526020016000206000820151816000015560208201518160010160006101000a81548173ffffffffffffffffffffffffffffffffffffffff021916908373ffffffffffffffffffffffffffffffffffffffff16021790555060408201518160020160006101000a81548173ffffffffffffffffffffffffffffffffffffffff021916908373ffffffffffffffffffffffffffffffffffffffff1602179055506060820151816003015560808201518160040160006101000a81548160ff021916908315150217905550905050612017333084611a72565b817f9339409317fd01fabff48b703019016f49159bacc801ae872d2ca637d226e4c0303384600160405161204e9493929190613d0a565b60405180910390a25050565b8173ffffffffffffffffffffffffffffffffffffffff168373ffffffffffffffffffffffffffffffffffffffff16036120c8576040517f08c379a00000000000000000000000000000000000000000000000000000000081526004016120bf90613d9b565b60405180910390fd5b80600560008573ffffffffffffffffffffffffffffffffffffffff1673ffffffffffffffffffffffffffffffffffffffff16815260200190815260200160002060008473ffffffffffffffffffffffffffffffffffffffff1673ffffffffffffffffffffffffffffffffffffffff16815260200190815260200160002060006101000a81548160ff0219169083151502179055508173ffffffffffffffffffffffffffffffffffffffff168373ffffffffffffffffffffffffffffffffffffffff167f17307eab39ab6107e8899845ad3d59bd9653f200f220920489ca2b5937696c31836040516121b99190612a42565b60405180910390a3505050565b6121d1848484611a72565b6121dd84848484612349565b61221c576040517f08c379a000000000000000000000000000000000000000000000000000000000815260040161221390613e2d565b60405180910390fd5b50505050565b606060405180602001604052806000815250905090565b6060612244826118d1565b600061224e612222565b9050600081511161226e5760405180602001604052806000815250612299565b80612278846124d0565b604051602001612289929190613a0c565b6040516020818303038152906040525b915050919050565b60008073ffffffffffffffffffffffffffffffffffffffff166122c383611d79565b73ffffffffffffffffffffffffffffffffffffffff1614159050919050565b50505050565b50505050565b6122f8838361259e565b6123056000848484612349565b612344576040517f08c379a000000000000000000000000000000000000000000000000000000000815260040161233b90613e2d565b60405180910390fd5b505050565b600061236a8473ffffffffffffffffffffffffffffffffffffffff166127bb565b156124c3578373ffffffffffffffffffffffffffffffffffffffff1663150b7a0261239361191c565b8786866040518563ffffffff1660e01b81526004016123b59493929190613ea2565b6020604051808303816000875af19250505080156123f157506040513d601f19601f820116820180604052508101906123ee9190613f03565b60015b612473573d8060008114612421576040519150601f19603f3d011682016040523d82523d6000602084013e612426565b606091505b50600081510361246b576040517f08c379a000000000000000000000000000000000000000000000000000000000815260040161246290613e2d565b60405180910390fd5b805181602001fd5b63150b7a0260e01b7bffffffffffffffffffffffffffffffffffffffffffffffffffffffff1916817bffffffffffffffffffffffffffffffffffffffffffffffffffffffff1916149150506124c8565b600190505b949350505050565b6060600060016124df846127de565b01905060008167ffffffffffffffff8111156124fe576124fd612e66565b5b6040519080825280601f01601f1916602001820160405280156125305781602001600182028036833780820191505090505b509050600082602001820190505b600115612593578080600190039150507f3031323334353637383961626364656600000000000000000000000000000000600a86061a8153600a858161258757612586613f30565b5b0494506000850361253e575b819350505050919050565b600073ffffffffffffffffffffffffffffffffffffffff168273ffffffffffffffffffffffffffffffffffffffff160361260d576040517f08c379a000000000000000000000000000000000000000000000000000000000815260040161260490613fab565b60405180910390fd5b612616816122a1565b15612656576040517f08c379a000000000000000000000000000000000000000000000000000000000815260040161264d90614017565b60405180910390fd5b6126646000838360016122e2565b61266d816122a1565b156126ad576040517f08c379a00000000000000000000000000000000000000000000000000000000081526004016126a490614017565b60405180910390fd5b6001600360008473ffffffffffffffffffffffffffffffffffffffff1673ffffffffffffffffffffffffffffffffffffffff16815260200190815260200160002060008282540192505081905550816002600083815260200190815260200160002060006101000a81548173ffffffffffffffffffffffffffffffffffffffff021916908373ffffffffffffffffffffffffffffffffffffffff160217905550808273ffffffffffffffffffffffffffffffffffffffff16600073ffffffffffffffffffffffffffffffffffffffff167fddf252ad1be2c89b69c2b068fc378daa952ba7f163c4a11628f55a4df523b3ef60405160405180910390a46127b76000838360016122e8565b5050565b6000808273ffffffffffffffffffffffffffffffffffffffff163b119050919050565b600080600090507a184f03e93ff9f4daa797ed6e38ed64bf6a1f010000000000000000831061283c577a184f03e93ff9f4daa797ed6e38ed64bf6a1f010000000000000000838161283257612831613f30565b5b0492506040810190505b6d04ee2d6d415b85acef81000000008310612879576d04ee2d6d415b85acef8100000000838161286f5761286e613f30565b5b0492506020810190505b662386f26fc1000083106128a857662386f26fc10000838161289e5761289d613f30565b5b0492506010810190505b6305f5e10083106128d1576305f5e10083816128c7576128c6613f30565b5b0492506008810190505b61271083106128f65761271083816128ec576128eb613f30565b5b0492506004810190505b60648310612919576064838161290f5761290e613f30565b5b0492506002810190505b600a8310612928576001810190505b80915050919050565b6040518060a0016040528060008152602001600073ffffffffffffffffffffffffffffffffffffffff168152602001600073ffffffffffffffffffffffffffffffffffffffff168152602001600081526020016000151581525090565b6000604051905090565b600080fd5b600080fd5b60007fffffffff0000000000000000000000000000000000000000000000000000000082169050919050565b6129d7816129a2565b81146129e257600080fd5b50565b6000813590506129f4816129ce565b92915050565b600060208284031215612a1057612a0f612998565b5b6000612a1e848285016129e5565b91505092915050565b60008115159050919050565b612a3c81612a27565b82525050565b6000602082019050612a576000830184612a33565b92915050565b600081519050919050565b600082825260208201905092915050565b60005b83811015612a97578082015181840152602081019050612a7c565b60008484015250505050565b6000601f19601f8301169050919050565b6000612abf82612a5d565b612ac98185612a68565b9350612ad9818560208601612a79565b612ae281612aa3565b840191505092915050565b60006020820190508181036000830152612b078184612ab4565b905092915050565b6000819050919050565b612b2281612b0f565b8114612b2d57600080fd5b50565b600081359050612b3f81612b19565b92915050565b600060208284031215612b5b57612b5a612998565b5b6000612b6984828501612b30565b91505092915050565b600073ffffffffffffffffffffffffffffffffffffffff82169050919050565b6000612b9d82612b72565b9050919050565b612bad81612b92565b82525050565b6000602082019050612bc86000830184612ba4565b92915050565b612bd781612b92565b8114612be257600080fd5b50565b600081359050612bf481612bce565b92915050565b60008060408385031215612c1157612c10612998565b5b6000612c1f85828601612be5565b9250506020612c3085828601612b30565b9150509250929050565b600080600060608486031215612c5357612c52612998565b5b6000612c6186828701612be5565b9350506020612c7286828701612be5565b9250506040612c8386828701612b30565b9150509250925092565b600081519050919050565b600082825260208201905092915050565b6000819050602082019050919050565b612cc281612b0f565b82525050565b6000612cd382612b72565b9050919050565b612ce381612cc8565b82525050565b612cf281612a27565b82525050565b60a082016000820151612d0e6000850182612cb9565b506020820151612d216020850182612cda565b506040820151612d346040850182612cda565b506060820151612d476060850182612cb9565b506080820151612d5a6080850182612ce9565b50505050565b6000612d6c8383612cf8565b60a08301905092915050565b6000602082019050919050565b6000612d9082612c8d565b612d9a8185612c98565b9350612da583612ca9565b8060005b83811015612dd6578151612dbd8882612d60565b9750612dc883612d78565b925050600181019050612da9565b5085935050505092915050565b60006020820190508181036000830152612dfd8184612d85565b905092915050565b612e0e81612b0f565b82525050565b6000602082019050612e296000830184612e05565b92915050565b600060208284031215612e4557612e44612998565b5b6000612e5384828501612be5565b91505092915050565b600080fd5b600080fd5b7f4e487b7100000000000000000000000000000000000000000000000000000000600052604160045260246000fd5b612e9e82612aa3565b810181811067ffffffffffffffff82111715612ebd57612ebc612e66565b5b80604052505050565b6000612ed061298e565b9050612edc8282612e95565b919050565b600067ffffffffffffffff821115612efc57612efb612e66565b5b612f0582612aa3565b9050602081019050919050565b82818337600083830152505050565b6000612f34612f2f84612ee1565b612ec6565b905082815260208101848484011115612f5057612f4f612e61565b5b612f5b848285612f12565b509392505050565b600082601f830112612f7857612f77612e5c565b5b8135612f88848260208601612f21565b91505092915050565b60008060408385031215612fa857612fa7612998565b5b600083013567ffffffffffffffff811115612fc657612fc561299d565b5b612fd285828601612f63565b9250506020612fe385828601612b30565b9150509250929050565b60a0820160008201516130036000850182612cb9565b5060208201516130166020850182612cda565b5060408201516130296040850182612cda565b50606082015161303c6060850182612cb9565b50608082015161304f6080850182612ce9565b50505050565b600060a08201905061306a6000830184612fed565b92915050565b61307981612a27565b811461308457600080fd5b50565b60008135905061309681613070565b92915050565b600080604083850312156130b3576130b2612998565b5b60006130c185828601612be5565b92505060206130d285828601613087565b9150509250929050565b600067ffffffffffffffff8211156130f7576130f6612e66565b5b61310082612aa3565b9050602081019050919050565b600061312061311b846130dc565b612ec6565b90508281526020810184848401111561313c5761313b612e61565b5b613147848285612f12565b509392505050565b600082601f83011261316457613163612e5c565b5b813561317484826020860161310d565b91505092915050565b6000806000806080858703121561319757613196612998565b5b60006131a587828801612be5565b94505060206131b687828801612be5565b93505060406131c787828801612b30565b925050606085013567ffffffffffffffff8111156131e8576131e761299d565b5b6131f48782880161314f565b91505092959194509250565b6000806040838503121561321757613216612998565b5b600061322585828601612be5565b925050602061323685828601612be5565b9150509250929050565b7f4e487b7100000000000000000000000000000000000000000000000000000000600052602260045260246000fd5b6000600282049050600182168061328757607f821691505b60208210810361329a57613299613240565b5b50919050565b7f4552433732313a20617070726f76616c20746f2063757272656e74206f776e6560008201527f7200000000000000000000000000000000000000000000000000000000000000602082015250565b60006132fc602183612a68565b9150613307826132a0565b604082019050919050565b6000602082019050818103600083015261332b816132ef565b9050919050565b7f4552433732313a20617070726f76652063616c6c6572206973206e6f7420746f60008201527f6b656e206f776e6572206f7220617070726f76656420666f7220616c6c000000602082015250565b600061338e603d83612a68565b915061339982613332565b604082019050919050565b600060208201905081810360008301526133bd81613381565b9050919050565b7f4552433732313a2063616c6c6572206973206e6f7420746f6b656e206f776e6560008201527f72206f7220617070726f76656400000000000000000000000000000000000000602082015250565b6000613420602d83612a68565b915061342b826133c4565b604082019050919050565b6000602082019050818103600083015261344f81613413565b9050919050565b7f4e487b7100000000000000000000000000000000000000000000000000000000600052601160045260246000fd5b600061349082612b0f565b915061349b83612b0f565b92508282019050808211156134b3576134b2613456565b5b92915050565b60006134c482612b0f565b91507fffffffffffffffffffffffffffffffffffffffffffffffffffffffffffffffff82036134f6576134f5613456565b5b600182019050919050565b7f4e487b7100000000000000000000000000000000000000000000000000000000600052603260045260246000fd5b7f4552433732313a20696e76616c696420746f6b656e2049440000000000000000600082015250565b6000613566601883612a68565b915061357182613530565b602082019050919050565b6000602082019050818103600083015261359581613559565b9050919050565b7f4552433732313a2061646472657373207a65726f206973206e6f74206120766160008201527f6c6964206f776e65720000000000000000000000000000000000000000000000602082015250565b60006135f8602983612a68565b91506136038261359c565b604082019050919050565b60006020820190508181036000830152613627816135eb565b9050919050565b60008190508160005260206000209050919050565b60006020601f8301049050919050565b600082821b905092915050565b6000600883026136907fffffffffffffffffffffffffffffffffffffffffffffffffffffffffffffffff82613653565b61369a8683613653565b95508019841693508086168417925050509392505050565b6000819050919050565b60006136d76136d26136cd84612b0f565b6136b2565b612b0f565b9050919050565b6000819050919050565b6136f1836136bc565b6137056136fd826136de565b848454613660565b825550505050565b600090565b61371a61370d565b6137258184846136e8565b505050565b5b818110156137495761373e600082613712565b60018101905061372b565b5050565b601f82111561378e5761375f8161362e565b61376884613643565b81016020851015613777578190505b61378b61378385613643565b83018261372a565b50505b505050565b600082821c905092915050565b60006137b160001984600802613793565b1980831691505092915050565b60006137ca83836137a0565b9150826002028217905092915050565b6137e382612a5d565b67ffffffffffffffff8111156137fc576137fb612e66565b5b613806825461326f565b61381182828561374d565b600060209050601f8311600181146138445760008415613832578287015190505b61383c85826137be565b8655506138a4565b601f1984166138528661362e565b60005b8281101561387a57848901518255600182019150602085019450602081019050613855565b868310156138975784890151613893601f8916826137a0565b8355505b6001600288020188555050505b505050505050565b7f506c65617365207375626d6974207468652061736b696e67207072696365206960008201527f6e206f7264657220746f20636f6d706c65746520746865207075726368617365602082015250565b6000613908604083612a68565b9150613913826138ac565b604082019050919050565b60006020820190508181036000830152613937816138fb565b9050919050565b7f4f6e6c79206f776e65722063616e20757064617465206c697374696e6720707260008201527f6963650000000000000000000000000000000000000000000000000000000000602082015250565b600061399a602383612a68565b91506139a58261393e565b604082019050919050565b600060208201905081810360008301526139c98161398d565b9050919050565b600081905092915050565b60006139e682612a5d565b6139f081856139d0565b9350613a00818560208601612a79565b80840191505092915050565b6000613a1882856139db565b9150613a2482846139db565b91508190509392505050565b7f4552433732313a207472616e736665722066726f6d20696e636f72726563742060008201527f6f776e6572000000000000000000000000000000000000000000000000000000602082015250565b6000613a8c602583612a68565b9150613a9782613a30565b604082019050919050565b60006020820190508181036000830152613abb81613a7f565b9050919050565b7f4552433732313a207472616e7366657220746f20746865207a65726f2061646460008201527f7265737300000000000000000000000000000000000000000000000000000000602082015250565b6000613b1e602483612a68565b9150613b2982613ac2565b604082019050919050565b60006020820190508181036000830152613b4d81613b11565b9050919050565b7f45524337323155524953746f726167653a2055524920736574206f66206e6f6e60008201527f6578697374656e7420746f6b656e000000000000000000000000000000000000602082015250565b6000613bb0602e83612a68565b9150613bbb82613b54565b604082019050919050565b60006020820190508181036000830152613bdf81613ba3565b9050919050565b7f486f706566756c6c792073656e64696e672074686520636f727265637420707260008201527f6963650000000000000000000000000000000000000000000000000000000000602082015250565b6000613c42602383612a68565b9150613c4d82613be6565b604082019050919050565b60006020820190508181036000830152613c7181613c35565b9050919050565b7f4d616b652073757265207468652070726963652069736e2774206e656761746960008201527f7665000000000000000000000000000000000000000000000000000000000000602082015250565b6000613cd4602283612a68565b9150613cdf82613c78565b604082019050919050565b60006020820190508181036000830152613d0381613cc7565b9050919050565b6000608082019050613d1f6000830187612ba4565b613d2c6020830186612ba4565b613d396040830185612e05565b613d466060830184612a33565b95945050505050565b7f4552433732313a20617070726f766520746f2063616c6c657200000000000000600082015250565b6000613d85601983612a68565b9150613d9082613d4f565b602082019050919050565b60006020820190508181036000830152613db481613d78565b9050919050565b7f4552433732313a207472616e7366657220746f206e6f6e20455243373231526560008201527f63656976657220696d706c656d656e7465720000000000000000000000000000602082015250565b6000613e17603283612a68565b9150613e2282613dbb565b604082019050919050565b60006020820190508181036000830152613e4681613e0a565b9050919050565b600081519050919050565b600082825260208201905092915050565b6000613e7482613e4d565b613e7e8185613e58565b9350613e8e818560208601612a79565b613e9781612aa3565b840191505092915050565b6000608082019050613eb76000830187612ba4565b613ec46020830186612ba4565b613ed16040830185612e05565b8181036060830152613ee38184613e69565b905095945050505050565b600081519050613efd816129ce565b92915050565b600060208284031215613f1957613f18612998565b5b6000613f2784828501613eee565b91505092915050565b7f4e487b7100000000000000000000000000000000000000000000000000000000600052601260045260246000fd5b7f4552433732313a206d696e7420746f20746865207a65726f2061646472657373600082015250565b6000613f95602083612a68565b9150613fa082613f5f565b602082019050919050565b60006020820190508181036000830152613fc481613f88565b9050919050565b7f4552433732313a20746f6b656e20616c7265616479206d696e74656400000000600082015250565b6000614001601c83612a68565b915061400c82613fcb565b602082019050919050565b6000602082019050818103600083015261403081613ff4565b905091905056fea264697066735822122050eb711ce5a36a7703bb4e9aeffd3dd125f5a9e476e2f83b26dc94d92258262c64736f6c63430008120033",
  "linkReferences": {},
  "deployedLinkReferences": {}
}